:100000000EC01BC01AC040C018C017C016C015C013
:1000100014C013C012C011C010C00FC00EC01124F4
:100020001FBECFEDCDBF20E0A0E6B0E001C01D9225
:10003000A636B207E1F743D09CC0E2CF87B3836016
:1000400087BBC29A8BE880BF81E18DBD80E489BF08
:100050007894089586B380958470089586B38370EC
:10006000089588B38C7F88BB089518BCFADF80910F
:100070006500882321F010926500C19A089581E0FF
:1000800080936500C09A08951F921FB61F92112495
:100090008F9388B58F5F88BD809160008260809368
:1000A000600088B5893131F480916000816080936F
:1000B000600018BC8F911F901FBE1F901895BEDF67
:1000C000C1E08091600080FF0CC08091630090913E
:1000D00060009E7F90936000109264008F5F809319
:1000E0006300809163008C3319F410926300BDDFCC
:1000F0008091600081FFE5CF809160008D7F8093CB
:100100006000A8DF8823C1F0809162008F5F809338
:100110006200C0936100893138F086B3837021F4A6
:1001200088B5823008F0A1DF86B3837051F288B5BC
:10013000823038F296DFC5CF809161008130A1F422
:1001400090916200993180F41092610010926200E7
:1001500090916400992311F088DFB3CF18BC1092FE
:10016000630080936400ADCF109261001092620032
:06017000A8CFF894FFCFB8
:00000001FF
